{
  "address": "0xB5daD504eD71DA34BbA2b40d32dE1992a5b8F7c4",
  "abi": [
    {
      "inputs": [
        {
          "internalType": "contract IEAS",
          "name": "eas",
          "type": "address"
        },
        {
          "internalType": "bytes32",
          "name": "schema",
          "type": "bytes32"
        }
      ],
      "stateMutability": "nonpayable",
      "type": "constructor"
    },
    {
      "inputs": [],
      "name": "InvalidDappId",
      "type": "error"
    },
    {
      "inputs": [],
      "name": "InvalidEAS",
      "type": "error"
    },
    {
      "inputs": [],
      "name": "InvalidRatingUID",
      "type": "error"
    },
    {
      "inputs": [],
      "name": "InvalidSchemaUID",
      "type": "error"
    },
    {
      "inputs": [],
      "name": "InvalidStarRating",
      "type": "error"
    },
    {
      "inputs": [],
      "name": "NotDappOwner",
      "type": "error"
    },
    {
      "anonymous": false,
      "inputs": [
        {
          "indexed": true,
          "internalType": "bytes32",
          "name": "dappId",
          "type": "bytes32"
        }
      ],
      "name": "DappDeleted",
      "type": "event"
    },
    {
      "anonymous": false,
      "inputs": [
        {
          "indexed": true,
          "internalType": "bytes32",
          "name": "ratingUid",
          "type": "bytes32"
        },
        {
          "indexed": true,
          "internalType": "address",
          "name": "revokedBy",
          "type": "address"
        },
        {
          "indexed": false,
          "internalType": "uint256",
          "name": "revokedAt",
          "type": "uint256"
        }
      ],
      "name": "DappRatingRevoked",
      "type": "event"
    },
    {
      "anonymous": false,
      "inputs": [
        {
          "indexed": true,
          "internalType": "bytes32",
          "name": "attestationId",
          "type": "bytes32"
        },
        {
          "indexed": true,
          "internalType": "bytes32",
          "name": "dappId",
          "type": "bytes32"
        },
        {
          "indexed": false,
          "internalType": "uint8",
          "name": "starRating",
          "type": "uint8"
        },
        {
          "indexed": false,
          "internalType": "string",
          "name": "reviewText",
          "type": "string"
        }
      ],
      "name": "DappRatingSubmitted",
      "type": "event"
    },
    {
      "anonymous": false,
      "inputs": [
        {
          "indexed": true,
          "internalType": "bytes32",
          "name": "dappId",
          "type": "bytes32"
        },
        {
          "indexed": false,
          "internalType": "string",
          "name": "name",
          "type": "string"
        },
        {
          "indexed": false,
          "internalType": "string",
          "name": "description",
          "type": "string"
        },
        {
          "indexed": false,
          "internalType": "string",
          "name": "url",
          "type": "string"
        },
        {
          "indexed": false,
          "internalType": "string",
          "name": "imageURL",
          "type": "string"
        },
        {
          "indexed": false,
          "internalType": "string",
          "name": "platform",
          "type": "string"
        },
        {
          "indexed": false,
          "internalType": "string",
          "name": "category",
          "type": "string"
        },
        {
          "indexed": false,
          "internalType": "address",
          "name": "owner",
          "type": "address"
        },
        {
          "indexed": false,
          "internalType": "uint256",
          "name": "registrationTime",
          "type": "uint256"
        }
      ],
      "name": "DappRegistered",
      "type": "event"
    },
    {
      "anonymous": false,
      "inputs": [
        {
          "indexed": true,
          "internalType": "bytes32",
          "name": "dappId",
          "type": "bytes32"
        },
        {
          "indexed": false,
          "internalType": "string",
          "name": "name",
          "type": "string"
        },
        {
          "indexed": false,
          "internalType": "string",
          "name": "description",
          "type": "string"
        },
        {
          "indexed": false,
          "internalType": "string",
          "name": "url",
          "type": "string"
        },
        {
          "indexed": false,
          "internalType": "string",
          "name": "imageURL",
          "type": "string"
        },
        {
          "indexed": false,
          "internalType": "string",
          "name": "platform",
          "type": "string"
        },
        {
          "indexed": false,
          "internalType": "string",
          "name": "category",
          "type": "string"
        },
        {
          "indexed": false,
          "internalType": "address",
          "name": "owner",
          "type": "address"
        }
      ],
      "name": "DappUpdated",
      "type": "event"
    },
    {
      "inputs": [
        {
          "internalType": "bytes32",
          "name": "dappId",
          "type": "bytes32"
        },
        {
          "internalType": "uint8",
          "name": "starRating",
          "type": "uint8"
        },
        {
          "internalType": "string",
          "name": "reviewText",
          "type": "string"
        }
      ],
      "name": "addDappRating",
      "outputs": [
        {
          "internalType": "bytes32",
          "name": "",
          "type": "bytes32"
        }
      ],
      "stateMutability": "nonpayable",
      "type": "function"
    },
    {
      "inputs": [],
      "name": "dappCounter",
      "outputs": [
        {
          "internalType": "uint256",
          "name": "",
          "type": "uint256"
        }
      ],
      "stateMutability": "view",
      "type": "function"
    },
    {
      "inputs": [
        {
          "internalType": "bytes32",
          "name": "",
          "type": "bytes32"
        }
      ],
      "name": "dappIdIsRegistered",
      "outputs": [
        {
          "internalType": "bool",
          "name": "",
          "type": "bool"
        }
      ],
      "stateMutability": "view",
      "type": "function"
    },
    {
      "inputs": [
        {
          "internalType": "uint256",
          "name": "",
          "type": "uint256"
        }
      ],
      "name": "dapps",
      "outputs": [
        {
          "internalType": "bytes32",
          "name": "dappId",
          "type": "bytes32"
        },
        {
          "internalType": "string",
          "name": "name",
          "type": "string"
        },
        {
          "internalType": "string",
          "name": "description",
          "type": "string"
        },
        {
          "internalType": "string",
          "name": "url",
          "type": "string"
        },
        {
          "internalType": "string",
          "name": "imageUrl",
          "type": "string"
        },
        {
          "internalType": "string",
          "name": "platform",
          "type": "string"
        },
        {
          "internalType": "string",
          "name": "category",
          "type": "string"
        },
        {
          "internalType": "address",
          "name": "owner",
          "type": "address"
        }
      ],
      "stateMutability": "view",
      "type": "function"
    },
    {
      "inputs": [
        {
          "internalType": "bytes32",
          "name": "_dappId",
          "type": "bytes32"
        }
      ],
      "name": "deleteDapp",
      "outputs": [],
      "stateMutability": "nonpayable",
      "type": "function"
    },
    {
      "inputs": [],
      "name": "getAllDapps",
      "outputs": [
        {
          "components": [
            {
              "internalType": "bytes32",
              "name": "dappId",
              "type": "bytes32"
            },
            {
              "internalType": "string",
              "name": "name",
              "type": "string"
            },
            {
              "internalType": "string",
              "name": "description",
              "type": "string"
            },
            {
              "internalType": "string",
              "name": "url",
              "type": "string"
            },
            {
              "internalType": "string",
              "name": "imageUrl",
              "type": "string"
            },
            {
              "internalType": "string",
              "name": "platform",
              "type": "string"
            },
            {
              "internalType": "string",
              "name": "category",
              "type": "string"
            },
            {
              "internalType": "address",
              "name": "owner",
              "type": "address"
            }
          ],
          "internalType": "struct DappRatingSystem.Dapp[]",
          "name": "",
          "type": "tuple[]"
        }
      ],
      "stateMutability": "view",
      "type": "function"
    },
    {
      "inputs": [
        {
          "internalType": "bytes32",
          "name": "dappId",
          "type": "bytes32"
        }
      ],
      "name": "getDapp",
      "outputs": [
        {
          "components": [
            {
              "internalType": "bytes32",
              "name": "dappId",
              "type": "bytes32"
            },
            {
              "internalType": "string",
              "name": "name",
              "type": "string"
            },
            {
              "internalType": "string",
              "name": "description",
              "type": "string"
            },
            {
              "internalType": "string",
              "name": "url",
              "type": "string"
            },
            {
              "internalType": "string",
              "name": "imageUrl",
              "type": "string"
            },
            {
              "internalType": "string",
              "name": "platform",
              "type": "string"
            },
            {
              "internalType": "string",
              "name": "category",
              "type": "string"
            },
            {
              "internalType": "address",
              "name": "owner",
              "type": "address"
            }
          ],
          "internalType": "struct DappRatingSystem.Dapp",
          "name": "",
          "type": "tuple"
        }
      ],
      "stateMutability": "view",
      "type": "function"
    },
    {
      "inputs": [
        {
          "internalType": "bytes32",
          "name": "dappId",
          "type": "bytes32"
        }
      ],
      "name": "isDappRegistered",
      "outputs": [
        {
          "internalType": "bool",
          "name": "",
          "type": "bool"
        }
      ],
      "stateMutability": "view",
      "type": "function"
    },
    {
      "inputs": [
        {
          "internalType": "string",
          "name": "_name",
          "type": "string"
        },
        {
          "internalType": "string",
          "name": "_description",
          "type": "string"
        },
        {
          "internalType": "string",
          "name": "_url",
          "type": "string"
        },
        {
          "internalType": "string",
          "name": "_imageURL",
          "type": "string"
        },
        {
          "internalType": "string",
          "name": "_platform",
          "type": "string"
        },
        {
          "internalType": "string",
          "name": "_category",
          "type": "string"
        }
      ],
      "name": "registerDapp",
      "outputs": [],
      "stateMutability": "nonpayable",
      "type": "function"
    },
    {
      "inputs": [
        {
          "internalType": "bytes32",
          "name": "ratingUid",
          "type": "bytes32"
        }
      ],
      "name": "revokeDappRating",
      "outputs": [],
      "stateMutability": "nonpayable",
      "type": "function"
    },
    {
      "inputs": [
        {
          "internalType": "bytes32",
          "name": "_dappId",
          "type": "bytes32"
        },
        {
          "internalType": "string",
          "name": "_name",
          "type": "string"
        },
        {
          "internalType": "string",
          "name": "_description",
          "type": "string"
        },
        {
          "internalType": "string",
          "name": "_url",
          "type": "string"
        },
        {
          "internalType": "string",
          "name": "_imageURL",
          "type": "string"
        },
        {
          "internalType": "string",
          "name": "_platform",
          "type": "string"
        },
        {
          "internalType": "string",
          "name": "_category",
          "type": "string"
        }
      ],
      "name": "updateDapp",
      "outputs": [],
      "stateMutability": "nonpayable",
      "type": "function"
    }
  ],
  "transactionHash": "0x01a84b4070bf9cf7b705ba44179d76388d56a3916b5e725258e49ec469cbf5dd",
  "args": [
    "0x247Fe62d887bc9410c3848DF2f322e52DA9a51bC",
    "0x0beb97f79e873b717add4df7d5d32bed7f19ba0ebdb81b66212048fd12ca89ba"
  ],
  "numDeployments": 2,
  "solcInputHash": "e93613cec71ad910f8e5fc481bfa80d7",
  "bytecode": "0x60c060405234801561001057600080fd5b506040516123c83803806123c883398101604081905261002f9161008a565b6001600160a01b038216610056576040516341bc07ff60e11b815260040160405180910390fd5b80610074576040516380d9b7d760e01b815260040160405180910390fd5b6001600160a01b0390911660805260a0526100c4565b6000806040838503121561009d57600080fd5b82516001600160a01b03811681146100b457600080fd5b6020939093015192949293505050565b60805160a0516122d16100f76000396000818161067901526107d901526000818161063f015261083b01526122d16000f3fe608060405234801561001057600080fd5b50600436106100a95760003560e01c8063838c8f3211610071578063838c8f32146101225780639640fe3514610155578063970bfcae1461017c578063ad26be0b1461019c578063aec5ab08146101bf578063cdb0d863146101d457600080fd5b806325cf53ce146100ae5780633bb48f55146100c35780635080f8a2146100d65780635d6b87f9146100fc5780636dcd46261461010f575b600080fd5b6100c16100bc36600461188e565b6101dd565b005b6100c16100d136600461198e565b61034f565b6100e96100e4366004611a83565b6105cc565b6040519081526020015b60405180910390f35b6100c161010a366004611ae2565b6107b0565b6100c161011d366004611ae2565b6108d9565b610145610130366004611ae2565b60026020526000908152604090205460ff1681565b60405190151581526020016100f3565b610168610163366004611ae2565b610bca565b6040516100f3989796959493929190611b4b565b61018f61018a366004611ae2565b610f57565b6040516100f39190611cae565b6101456101aa366004611ae2565b60009081526002602052604090205460ff1690565b6101c76113a9565b6040516100f39190611cc8565b6100e960015481565b60008781526002602052604090205460ff166102145760405162461bcd60e51b815260040161020b90611d2c565b60405180910390fd5b600087815260036020526040812054815490919081908390811061023a5761023a611d59565b600091825260209091206007600890920201908101549091506001600160a01b031633146102a65760405162461bcd60e51b815260206004820152601960248201527804e6f7420746865206f776e6572206f6620746865204461707603c1b604482015260640161020b565b600181016102b48982611dfa565b50600281016102c38882611dfa565b50600381016102d28782611dfa565b50600481016102e18682611dfa565b50600581016102f08582611dfa565b50600681016102ff8482611dfa565b50887f9d33c9b0797b99a30a5dd3a06cc1504975918635c6dc00fe770f12ae7f2fd61c8989898989893360405161033c9796959493929190611eba565b60405180910390a2505050505050505050565b6000846040516020016103629190611f4c565b60408051601f1981840301815291815281516020928301206000818152600290935291205490915060ff16156103ec5760405162461bcd60e51b815260206004820152602960248201527f446170702077697468207468652073616d652055524c20616c726561647920726044820152681959da5cdd195c995960ba1b606482015260840161020b565b600180549060006103fc83611f7e565b90915550506000818152600260209081526040808320805460ff191660019081179091558151610100810183528581529283018b81529183018a9052606083018990526080830188905260a0830187905260c083018690523360e084015283549081018455928052815160089093027f290decd9548b62a8d60345a988386fc84ba6bc95484008f6362f93160ef3e563810193845590519192839290917f290decd9548b62a8d60345a988386fc84ba6bc95484008f6362f93160ef3e56401906104c69082611dfa565b50604082015160028201906104db9082611dfa565b50606082015160038201906104f09082611dfa565b50608082015160048201906105059082611dfa565b5060a0820151600582019061051a9082611dfa565b5060c0820151600682019061052f9082611dfa565b5060e09190910151600790910180546001600160a01b0319166001600160a01b0390921691909117905560005461056890600190611f97565b60008381526003602052604090819020919091555182907fe66cf742a52bef22247ea984c8b81cabfcb31f56f7098851e0e6f685758eef22906105ba908b908b908b908b908b908b9033904290611fb0565b60405180910390a25050505050505050565b60008315806105ea575060008481526002602052604090205460ff16155b1561060857604051630172951f60e01b815260040160405180910390fd5b60018360ff16108061061d575060058360ff16115b1561063b576040516352b79ea360e01b815260040160405180910390fd5b60007f00000000000000000000000000000000000000000000000000000000000000006001600160a01b031663f17325e760405180604001604052807f000000000000000000000000000000000000000000000000000000000000000081526020016040518060c0016040528060006001600160a01b03168152602001600067ffffffffffffffff1681526020016001151581526020016000801b81526020018a8a8a6040516020016106f093929190612049565b604051602081830303815290604052815260200160008152508152506040518263ffffffff1660e01b81526004016107289190612074565b6020604051808303816000875af1158015610747573d6000803e3d6000fd5b505050506040513d601f19601f8201168201806040525081019061076b91906120f7565b905084817fa7772ec4b89def345a0c116dedd194085f26c634cd44ecbfb0cbd51b06f3e1dd86866040516107a0929190612110565b60405180910390a3949350505050565b806107ce576040516309e46d6b60e41b815260040160405180910390fd5b6040805180820182527f000000000000000000000000000000000000000000000000000000000000000081528151808301835283815260006020808301919091528083019182529251634692626760e01b81529151600483015251805160248301529091015160448201527f00000000000000000000000000000000000000000000000000000000000000006001600160a01b031690634692626790606401600060405180830381600087803b15801561088757600080fd5b505af115801561089b573d6000803e3d6000fd5b50506040514281523392508391507f764fcaa8b2c6f1ba30688315d0db01c26b0d2a711b539acfe472ab46848d02b89060200160405180910390a350565b60008181526002602052604090205460ff166109075760405162461bcd60e51b815260040161020b90611d2c565b600081815260036020526040812054815490919081908390811061092d5761092d611d59565b600091825260209091206007600890920201908101549091506001600160a01b031633146109995760405162461bcd60e51b815260206004820152601960248201527804e6f7420746865206f776e6572206f6620746865204461707603c1b604482015260640161020b565b600080546109a990600190611f97565b815481106109b9576109b9611d59565b9060005260206000209060080201600083815481106109da576109da611d59565b600091825260209091208254600890920201908155600180820190610a0190840182612134565b50600281810190610a1490840182612134565b50600381810190610a2790840182612134565b50600481810190610a3a90840182612134565b50600581810190610a4d90840182612134565b50600681810190610a6090840182612134565b50600791820154910180546001600160a01b0319166001600160a01b03909216919091179055600080548391600391819084908110610aa157610aa1611d59565b9060005260206000209060080201600301604051602001610ac2919061220f565b604051602081830303815290604052805190602001208152602001908152602001600020819055506000805480610afb57610afb612285565b60008281526020812060086000199093019283020181815590610b216001830182611795565b610b2f600283016000611795565b610b3d600383016000611795565b610b4b600483016000611795565b610b59600583016000611795565b610b67600683016000611795565b5060070180546001600160a01b031916905590556000838152600260209081526040808320805460ff1916905560039091528082208290555184917fcae7d1ec9a1e8cbd2e623c68a3eec9db3db4f2d1cf6aa16f3ca9dacd7b1853a091a2505050565b60008181548110610bda57600080fd5b60009182526020909120600890910201805460018201805491935090610bff90611d6f565b80601f0160208091040260200160405190810160405280929190818152602001828054610c2b90611d6f565b8015610c785780601f10610c4d57610100808354040283529160200191610c78565b820191906000526020600020905b815481529060010190602001808311610c5b57829003601f168201915b505050505090806002018054610c8d90611d6f565b80601f0160208091040260200160405190810160405280929190818152602001828054610cb990611d6f565b8015610d065780601f10610cdb57610100808354040283529160200191610d06565b820191906000526020600020905b815481529060010190602001808311610ce957829003601f168201915b505050505090806003018054610d1b90611d6f565b80601f0160208091040260200160405190810160405280929190818152602001828054610d4790611d6f565b8015610d945780601f10610d6957610100808354040283529160200191610d94565b820191906000526020600020905b815481529060010190602001808311610d7757829003601f168201915b505050505090806004018054610da990611d6f565b80601f0160208091040260200160405190810160405280929190818152602001828054610dd590611d6f565b8015610e225780601f10610df757610100808354040283529160200191610e22565b820191906000526020600020905b815481529060010190602001808311610e0557829003601f168201915b505050505090806005018054610e3790611d6f565b80601f0160208091040260200160405190810160405280929190818152602001828054610e6390611d6f565b8015610eb05780601f10610e8557610100808354040283529160200191610eb0565b820191906000526020600020905b815481529060010190602001808311610e9357829003601f168201915b505050505090806006018054610ec590611d6f565b80601f0160208091040260200160405190810160405280929190818152602001828054610ef190611d6f565b8015610f3e5780601f10610f1357610100808354040283529160200191610f3e565b820191906000526020600020905b815481529060010190602001808311610f2157829003601f168201915b505050600790930154919250506001600160a01b031688565b610fab6040518061010001604052806000801916815260200160608152602001606081526020016060815260200160608152602001606081526020016060815260200160006001600160a01b031681525090565b60008281526002602052604090205460ff16610fd95760405162461bcd60e51b815260040161020b90611d2c565b600082815260036020526040812054815490919082908110610ffd57610ffd611d59565b9060005260206000209060080201604051806101000160405290816000820154815260200160018201805461103190611d6f565b80601f016020809104026020016040519081016040528092919081815260200182805461105d90611d6f565b80156110aa5780601f1061107f576101008083540402835291602001916110aa565b820191906000526020600020905b81548152906001019060200180831161108d57829003601f168201915b505050505081526020016002820180546110c390611d6f565b80601f01602080910402602001604051908101604052809291908181526020018280546110ef90611d6f565b801561113c5780601f106111115761010080835404028352916020019161113c565b820191906000526020600020905b81548152906001019060200180831161111f57829003601f168201915b5050505050815260200160038201805461115590611d6f565b80601f016020809104026020016040519081016040528092919081815260200182805461118190611d6f565b80156111ce5780601f106111a3576101008083540402835291602001916111ce565b820191906000526020600020905b8154815290600101906020018083116111b157829003601f168201915b505050505081526020016004820180546111e790611d6f565b80601f016020809104026020016040519081016040528092919081815260200182805461121390611d6f565b80156112605780601f1061123557610100808354040283529160200191611260565b820191906000526020600020905b81548152906001019060200180831161124357829003601f168201915b5050505050815260200160058201805461127990611d6f565b80601f01602080910402602001604051908101604052809291908181526020018280546112a590611d6f565b80156112f25780601f106112c7576101008083540402835291602001916112f2565b820191906000526020600020905b8154815290600101906020018083116112d557829003601f168201915b5050505050815260200160068201805461130b90611d6f565b80601f016020809104026020016040519081016040528092919081815260200182805461133790611d6f565b80156113845780601f1061135957610100808354040283529160200191611384565b820191906000526020600020905b81548152906001019060200180831161136757829003601f168201915b5050509183525050600791909101546001600160a01b03166020909101529392505050565b60606000805480602002602001604051908101604052809291908181526020016000905b8282101561178c5783829060005260206000209060080201604051806101000160405290816000820154815260200160018201805461140b90611d6f565b80601f016020809104026020016040519081016040528092919081815260200182805461143790611d6f565b80156114845780601f1061145957610100808354040283529160200191611484565b820191906000526020600020905b81548152906001019060200180831161146757829003601f168201915b5050505050815260200160028201805461149d90611d6f565b80601f01602080910402602001604051908101604052809291908181526020018280546114c990611d6f565b80156115165780601f106114eb57610100808354040283529160200191611516565b820191906000526020600020905b8154815290600101906020018083116114f957829003601f168201915b5050505050815260200160038201805461152f90611d6f565b80601f016020809104026020016040519081016040528092919081815260200182805461155b90611d6f565b80156115a85780601f1061157d576101008083540402835291602001916115a8565b820191906000526020600020905b81548152906001019060200180831161158b57829003601f168201915b505050505081526020016004820180546115c190611d6f565b80601f01602080910402602001604051908101604052809291908181526020018280546115ed90611d6f565b801561163a5780601f1061160f5761010080835404028352916020019161163a565b820191906000526020600020905b81548152906001019060200180831161161d57829003601f168201915b5050505050815260200160058201805461165390611d6f565b80601f016020809104026020016040519081016040528092919081815260200182805461167f90611d6f565b80156116cc5780601f106116a1576101008083540402835291602001916116cc565b820191906000526020600020905b8154815290600101906020018083116116af57829003601f168201915b505050505081526020016006820180546116e590611d6f565b80601f016020809104026020016040519081016040528092919081815260200182805461171190611d6f565b801561175e5780601f106117335761010080835404028352916020019161175e565b820191906000526020600020905b81548152906001019060200180831161174157829003601f168201915b5050509183525050600791909101546001600160a01b031660209182015290825260019290920191016113cd565b50505050905090565b5080546117a190611d6f565b6000825580601f106117b1575050565b601f0160209004906000526020600020908101906117cf91906117d2565b50565b5b808211156117e757600081556001016117d3565b5090565b634e487b7160e01b600052604160045260246000fd5b600082601f83011261181257600080fd5b813567ffffffffffffffff8082111561182d5761182d6117eb565b604051601f8301601f19908116603f01168101908282118183101715611855576118556117eb565b8160405283815286602085880101111561186e57600080fd5b836020870160208301376000602085830101528094505050505092915050565b600080600080600080600060e0888a0312156118a957600080fd5b87359650602088013567ffffffffffffffff808211156118c857600080fd5b6118d48b838c01611801565b975060408a01359150808211156118ea57600080fd5b6118f68b838c01611801565b965060608a013591508082111561190c57600080fd5b6119188b838c01611801565b955060808a013591508082111561192e57600080fd5b61193a8b838c01611801565b945060a08a013591508082111561195057600080fd5b61195c8b838c01611801565b935060c08a013591508082111561197257600080fd5b5061197f8a828b01611801565b91505092959891949750929550565b60008060008060008060c087890312156119a757600080fd5b863567ffffffffffffffff808211156119bf57600080fd5b6119cb8a838b01611801565b975060208901359150808211156119e157600080fd5b6119ed8a838b01611801565b96506040890135915080821115611a0357600080fd5b611a0f8a838b01611801565b95506060890135915080821115611a2557600080fd5b611a318a838b01611801565b94506080890135915080821115611a4757600080fd5b611a538a838b01611801565b935060a0890135915080821115611a6957600080fd5b50611a7689828a01611801565b9150509295509295509295565b600080600060608486031215611a9857600080fd5b83359250602084013560ff81168114611ab057600080fd5b9150604084013567ffffffffffffffff811115611acc57600080fd5b611ad886828701611801565b9150509250925092565b600060208284031215611af457600080fd5b5035919050565b60005b83811015611b16578181015183820152602001611afe565b50506000910152565b60008151808452611b37816020860160208601611afb565b601f01601f19169290920160200192915050565b60006101008a8352806020840152611b658184018b611b1f565b90508281036040840152611b79818a611b1f565b90508281036060840152611b8d8189611b1f565b90508281036080840152611ba18188611b1f565b905082810360a0840152611bb58187611b1f565b905082810360c0840152611bc98186611b1f565b91505060018060a01b03831660e08301529998505050505050505050565b6000610100825184526020830151816020860152611c0782860182611b1f565b91505060408301518482036040860152611c218282611b1f565b91505060608301518482036060860152611c3b8282611b1f565b91505060808301518482036080860152611c558282611b1f565b91505060a083015184820360a0860152611c6f8282611b1f565b91505060c083015184820360c0860152611c898282611b1f565b91505060e0830151611ca660e08601826001600160a01b03169052565b509392505050565b602081526000611cc16020830184611be7565b9392505050565b600060208083016020845280855180835260408601915060408160051b87010192506020870160005b82811015611d1f57603f19888603018452611d0d858351611be7565b94509285019290850190600101611cf1565b5092979650505050505050565b60208082526013908201527211185c1c081b9bdd081c9959da5cdd195c9959606a1b604082015260600190565b634e487b7160e01b600052603260045260246000fd5b600181811c90821680611d8357607f821691505b602082108103611da357634e487b7160e01b600052602260045260246000fd5b50919050565b601f821115611df5576000816000526020600020601f850160051c81016020861015611dd25750805b601f850160051c820191505b81811015611df157828155600101611dde565b5050505b505050565b815167ffffffffffffffff811115611e1457611e146117eb565b611e2881611e228454611d6f565b84611da9565b602080601f831160018114611e5d5760008415611e455750858301515b600019600386901b1c1916600185901b178555611df1565b600085815260208120601f198616915b82811015611e8c57888601518255948401946001909101908401611e6d565b5085821015611eaa5787850151600019600388901b60f8161c191681555b5050505050600190811b01905550565b60e081526000611ecd60e083018a611b1f565b8281036020840152611edf818a611b1f565b90508281036040840152611ef38189611b1f565b90508281036060840152611f078188611b1f565b90508281036080840152611f1b8187611b1f565b905082810360a0840152611f2f8186611b1f565b91505060018060a01b03831660c083015298975050505050505050565b60008251611f5e818460208701611afb565b9190910192915050565b634e487b7160e01b600052601160045260246000fd5b600060018201611f9057611f90611f68565b5060010190565b81810381811115611faa57611faa611f68565b92915050565b6000610100808352611fc48184018c611b1f565b90508281036020840152611fd8818b611b1f565b90508281036040840152611fec818a611b1f565b905082810360608401526120008189611b1f565b905082810360808401526120148188611b1f565b905082810360a08401526120288187611b1f565b6001600160a01b039590951660c0840152505060e001529695505050505050565b83815260ff8316602082015260606040820152600061206b6060830184611b1f565b95945050505050565b60208152815160208201526000602083015160408084015260018060a01b03815116606084015267ffffffffffffffff60208201511660808401526040810151151560a0840152606081015160c0840152608081015160c060e08501526120df610120850182611b1f565b905060a0820151610100850152809250505092915050565b60006020828403121561210957600080fd5b5051919050565b60ff8316815260406020820152600061212c6040830184611b1f565b949350505050565b81810361213f575050565b6121498254611d6f565b67ffffffffffffffff811115612161576121616117eb565b61216f81611e228454611d6f565b6000601f8211600181146121a3576000831561218b5750848201545b600019600385901b1c1916600184901b178455612208565b600085815260209020601f19841690600086815260209020845b838110156121dd57828601548255600195860195909101906020016121bd565b50858310156121fb5781850154600019600388901b60f8161c191681555b50505060018360011b0184555b5050505050565b600080835461221d81611d6f565b60018281168015612235576001811461224a57612279565b60ff1984168752821515830287019450612279565b8760005260208060002060005b858110156122705781548a820152908401908201612257565b50505082870194505b50929695505050505050565b634e487b7160e01b600052603160045260246000fdfea2646970667358221220677089d80da71043b44bc9b5700f6550ee2dee775eda334f03ea25832168090b64736f6c63430008190033",
  "devdoc": {
    "kind": "dev",
    "methods": {
      "constructor": {
        "params": {
          "eas": "The address of the global EAS contract.",
          "schema": "The schema UID of the DappRatingSystem."
        }
      }
    },
    "version": 1
  },
  "userdoc": {
    "kind": "user",
    "methods": {
      "constructor": {
        "notice": "Creates a new DappRatingSystem instance."
      }
    },
    "version": 1
  },
  "storageLayout": {
    "storage": [
      {
        "astId": 2353,
        "contract": "contracts/DappRatingSystem.sol:DappRatingSystem",
        "label": "dapps",
        "offset": 0,
        "slot": "0",
        "type": "t_array(t_struct(Dapp)2349_storage)dyn_storage"
      },
      {
        "astId": 2355,
        "contract": "contracts/DappRatingSystem.sol:DappRatingSystem",
        "label": "dappCounter",
        "offset": 0,
        "slot": "1",
        "type": "t_uint256"
      },
      {
        "astId": 2359,
        "contract": "contracts/DappRatingSystem.sol:DappRatingSystem",
        "label": "dappIdIsRegistered",
        "offset": 0,
        "slot": "2",
        "type": "t_mapping(t_bytes32,t_bool)"
      },
      {
        "astId": 2363,
        "contract": "contracts/DappRatingSystem.sol:DappRatingSystem",
        "label": "dappIndex",
        "offset": 0,
        "slot": "3",
        "type": "t_mapping(t_bytes32,t_uint256)"
      }
    ],
    "types": {
      "t_address": {
        "encoding": "inplace",
        "label": "address",
        "numberOfBytes": "20"
      },
      "t_array(t_struct(Dapp)2349_storage)dyn_storage": {
        "base": "t_struct(Dapp)2349_storage",
        "encoding": "dynamic_array",
        "label": "struct DappRatingSystem.Dapp[]",
        "numberOfBytes": "32"
      },
      "t_bool": {
        "encoding": "inplace",
        "label": "bool",
        "numberOfBytes": "1"
      },
      "t_bytes32": {
        "encoding": "inplace",
        "label": "bytes32",
        "numberOfBytes": "32"
      },
      "t_mapping(t_bytes32,t_bool)": {
        "encoding": "mapping",
        "key": "t_bytes32",
        "label": "mapping(bytes32 => bool)",
        "numberOfBytes": "32",
        "value": "t_bool"
      },
      "t_mapping(t_bytes32,t_uint256)": {
        "encoding": "mapping",
        "key": "t_bytes32",
        "label": "mapping(bytes32 => uint256)",
        "numberOfBytes": "32",
        "value": "t_uint256"
      },
      "t_string_storage": {
        "encoding": "bytes",
        "label": "string",
        "numberOfBytes": "32"
      },
      "t_struct(Dapp)2349_storage": {
        "encoding": "inplace",
        "label": "struct DappRatingSystem.Dapp",
        "members": [
          {
            "astId": 2334,
            "contract": "contracts/DappRatingSystem.sol:DappRatingSystem",
            "label": "dappId",
            "offset": 0,
            "slot": "0",
            "type": "t_bytes32"
          },
          {
            "astId": 2336,
            "contract": "contracts/DappRatingSystem.sol:DappRatingSystem",
            "label": "name",
            "offset": 0,
            "slot": "1",
            "type": "t_string_storage"
          },
          {
            "astId": 2338,
            "contract": "contracts/DappRatingSystem.sol:DappRatingSystem",
            "label": "description",
            "offset": 0,
            "slot": "2",
            "type": "t_string_storage"
          },
          {
            "astId": 2340,
            "contract": "contracts/DappRatingSystem.sol:DappRatingSystem",
            "label": "url",
            "offset": 0,
            "slot": "3",
            "type": "t_string_storage"
          },
          {
            "astId": 2342,
            "contract": "contracts/DappRatingSystem.sol:DappRatingSystem",
            "label": "imageUrl",
            "offset": 0,
            "slot": "4",
            "type": "t_string_storage"
          },
          {
            "astId": 2344,
            "contract": "contracts/DappRatingSystem.sol:DappRatingSystem",
            "label": "platform",
            "offset": 0,
            "slot": "5",
            "type": "t_string_storage"
          },
          {
            "astId": 2346,
            "contract": "contracts/DappRatingSystem.sol:DappRatingSystem",
            "label": "category",
            "offset": 0,
            "slot": "6",
            "type": "t_string_storage"
          },
          {
            "astId": 2348,
            "contract": "contracts/DappRatingSystem.sol:DappRatingSystem",
            "label": "owner",
            "offset": 0,
            "slot": "7",
            "type": "t_address"
          }
        ],
        "numberOfBytes": "256"
      },
      "t_uint256": {
        "encoding": "inplace",
        "label": "uint256",
        "numberOfBytes": "32"
      }
    }
  }
}